{
  "contractName": "CrowdFundingStorage",
  "abi": [
    {
      "inputs": [],
      "name": "numCampaigns",
      "outputs": [
        {
          "internalType": "uint256",
          "name": "",
          "type": "uint256"
        }
      ],
      "stateMutability": "view",
      "type": "function"
    },
    {
      "inputs": [
        {
          "internalType": "uint256",
          "name": "",
          "type": "uint256"
        },
        {
          "internalType": "address",
          "name": "",
          "type": "address"
        }
      ],
      "name": "participate",
      "outputs": [
        {
          "internalType": "bool",
          "name": "",
          "type": "bool"
        }
      ],
      "stateMutability": "view",
      "type": "function"
    }
  ],
  "bytecode": "0x608060405234801561001057600080fd5b5060fc8061001f6000396000f3fe6080604052348015600f57600080fd5b506004361060325760003560e01c806313b186401460375780632c0f7b6f146077575b600080fd5b60626042366004608c565b600360209081526000928352604080842090915290825290205460ff1681565b60405190151581526020015b60405180910390f35b607f60005481565b604051908152602001606e565b60008060408385031215609e57600080fd5b8235915060208301356001600160a01b038116811460bb57600080fd5b80915050925092905056fea264697066735822122034ba4b4c6983d69bbfc869b8b52d4738b4f97988ddb66bc628b986500e973fad64736f6c634300080e0033",
  "immutableReferences": {},
  "source": "// SPDX-License-Identifier: GPL-3.0\npragma solidity 0.8.14;\n\ncontract CrowdFundingStorage {\n    struct Campaign {\n        address payable receiver;\n        uint256 numFunders;\n        uint256 fundingGoal;\n        uint256 totalAmount;\n    }\n\n    struct Funder {\n        address addr;\n        uint256 amount;\n    }\n\n    uint256 public numCampaigns;\n    mapping(uint256 => Campaign) campaigns;\n    mapping(uint256 => Funder[]) funders;\n    mapping(uint256 => mapping(address => bool)) public participate;\n}\n\ncontract CrowdFunding is CrowdFundingStorage {\n    address public immutable owner;\n\n    event CampaignCreated(address indexed _from, uint256 _id);\n    event BidPlaced(address indexed _from, uint256 _id);\n    event WithdrawDone(address indexed _from, uint256 _id);\n    event WithdrawFailed(address indexed _from, uint256 _id);\n\n    constructor() {\n        owner = msg.sender;\n    }\n\n    modifier isOwner() {\n        require(msg.sender == owner);\n        _;\n    }\n\n    modifier validate(uint256 id) {\n        require(participate[id][msg.sender] == false);\n        _;\n    }\n\n    function getCampaign(uint256 id) external view returns(Campaign memory) {\n        return campaigns[id];\n    }\n\n    function newCampaign(address payable receiver, uint256 goal) external isOwner() returns(uint256 id) {\n        id = numCampaigns++;\n        Campaign storage c = campaigns[id];\n        c.receiver = receiver;\n        c.fundingGoal = goal;\n\n        emit CampaignCreated(msg.sender, id);\n    }\n\n    function bid(uint256 id) external payable validate(id) {\n        Campaign storage c = campaigns[id];\n        \n        c.totalAmount += msg.value;\n        c.numFunders += 1;\n\n        funders[id].push(Funder({\n            addr: msg.sender,\n            amount: msg.value\n        }));\n\n        participate[id][msg.sender] = true;\n\n        emit BidPlaced(msg.sender, id);\n    }\n\n    function withdraw(uint256 id) external {\n        Campaign storage c = campaigns[id];\n\n        if(c.totalAmount < c.fundingGoal) {\n            emit WithdrawFailed(msg.sender, id);\n            return;\n        }\n\n        uint256 amount = c.totalAmount;\n        c.totalAmount = 0;\n        c.receiver.transfer(amount);\n\n        emit WithdrawDone(msg.sender, id);\n    }\n}\n",
  "sourcePath": "/Users/alex/work/solidity_projects/solidity_course_7/contracts/CrowdFunding.sol",
  "compiler": {
    "name": "solc",
    "version": "0.8.14+commit.80d49f37.Emscripten.clang"
  },
  "schemaVersion": "3.4.7",
  "updatedAt": "2022-06-24T07:48:32.236Z",
  "devdoc": {
    "kind": "dev",
    "methods": {},
    "version": 1
  },
  "userdoc": {
    "kind": "user",
    "methods": {},
    "version": 1
  }
}