{
  "contractName": "CrowdFunding",
  "abi": [
    {
      "inputs": [],
      "stateMutability": "nonpayable",
      "type": "constructor"
    },
    {
      "anonymous": false,
      "inputs": [
        {
          "indexed": true,
          "internalType": "address",
          "name": "_from",
          "type": "address"
        },
        {
          "indexed": false,
          "internalType": "uint256",
          "name": "_id",
          "type": "uint256"
        }
      ],
      "name": "BidPlaced",
      "type": "event"
    },
    {
      "anonymous": false,
      "inputs": [
        {
          "indexed": true,
          "internalType": "address",
          "name": "_from",
          "type": "address"
        },
        {
          "indexed": false,
          "internalType": "uint256",
          "name": "_id",
          "type": "uint256"
        }
      ],
      "name": "CampaignCreated",
      "type": "event"
    },
    {
      "anonymous": false,
      "inputs": [
        {
          "indexed": true,
          "internalType": "address",
          "name": "_from",
          "type": "address"
        },
        {
          "indexed": false,
          "internalType": "uint256",
          "name": "_id",
          "type": "uint256"
        }
      ],
      "name": "WithdrawDone",
      "type": "event"
    },
    {
      "anonymous": false,
      "inputs": [
        {
          "indexed": true,
          "internalType": "address",
          "name": "_from",
          "type": "address"
        },
        {
          "indexed": false,
          "internalType": "uint256",
          "name": "_id",
          "type": "uint256"
        }
      ],
      "name": "WithdrawFailed",
      "type": "event"
    },
    {
      "inputs": [],
      "name": "numCampaigns",
      "outputs": [
        {
          "internalType": "uint256",
          "name": "",
          "type": "uint256"
        }
      ],
      "stateMutability": "view",
      "type": "function",
      "constant": true
    },
    {
      "inputs": [],
      "name": "owner",
      "outputs": [
        {
          "internalType": "address",
          "name": "",
          "type": "address"
        }
      ],
      "stateMutability": "view",
      "type": "function",
      "constant": true
    },
    {
      "inputs": [
        {
          "internalType": "uint256",
          "name": "",
          "type": "uint256"
        },
        {
          "internalType": "address",
          "name": "",
          "type": "address"
        }
      ],
      "name": "participate",
      "outputs": [
        {
          "internalType": "bool",
          "name": "",
          "type": "bool"
        }
      ],
      "stateMutability": "view",
      "type": "function",
      "constant": true
    },
    {
      "inputs": [
        {
          "internalType": "uint256",
          "name": "id",
          "type": "uint256"
        }
      ],
      "name": "getCampaign",
      "outputs": [
        {
          "components": [
            {
              "internalType": "address payable",
              "name": "receiver",
              "type": "address"
            },
            {
              "internalType": "uint256",
              "name": "numFunders",
              "type": "uint256"
            },
            {
              "internalType": "uint256",
              "name": "fundingGoal",
              "type": "uint256"
            },
            {
              "internalType": "uint256",
              "name": "totalAmount",
              "type": "uint256"
            }
          ],
          "internalType": "struct CrowdFundingStorage.Campaign",
          "name": "",
          "type": "tuple"
        }
      ],
      "stateMutability": "view",
      "type": "function",
      "constant": true
    },
    {
      "inputs": [
        {
          "internalType": "address payable",
          "name": "receiver",
          "type": "address"
        },
        {
          "internalType": "uint256",
          "name": "goal",
          "type": "uint256"
        }
      ],
      "name": "newCampaign",
      "outputs": [
        {
          "internalType": "uint256",
          "name": "id",
          "type": "uint256"
        }
      ],
      "stateMutability": "nonpayable",
      "type": "function"
    },
    {
      "inputs": [
        {
          "internalType": "uint256",
          "name": "id",
          "type": "uint256"
        }
      ],
      "name": "bid",
      "outputs": [],
      "stateMutability": "payable",
      "type": "function",
      "payable": true
    },
    {
      "inputs": [
        {
          "internalType": "uint256",
          "name": "id",
          "type": "uint256"
        }
      ],
      "name": "withdraw",
      "outputs": [],
      "stateMutability": "nonpayable",
      "type": "function"
    }
  ],
  "bytecode": "0x60a060405234801561001057600080fd5b503360805260805161061c6100376000396000818161018c0152610465015261061c6000f3fe6080604052600436106100705760003560e01c8063454a2ab31161004e578063454a2ab31461010b5780635598f8cc1461011e5780638da5cb5b1461017a578063f7572cf3146101c657600080fd5b806313b18640146100755780632c0f7b6f146100c55780632e1a7d4d146100e9575b600080fd5b34801561008157600080fd5b506100b061009036600461052a565b600360209081526000928352604080842090915290825290205460ff1681565b60405190151581526020015b60405180910390f35b3480156100d157600080fd5b506100db60005481565b6040519081526020016100bc565b3480156100f557600080fd5b5061010961010436600461055a565b6101e6565b005b61010961011936600461055a565b6102bf565b34801561012a57600080fd5b5061013e61013936600461055a565b6103d7565b6040516100bc919081516001600160a01b0316815260208083015190820152604080830151908201526060918201519181019190915260800190565b34801561018657600080fd5b506101ae7f000000000000000000000000000000000000000000000000000000000000000081565b6040516001600160a01b0390911681526020016100bc565b3480156101d257600080fd5b506100db6101e1366004610573565b610458565b600081815260016020526040902060028101546003820154101561023d5760405182815233907fa2269912b47133fae1d7f448c9284ea248951ac29b8c7c41d301f8721a38d10d9060200160405180910390a25050565b600381018054600091829055825460405191926001600160a01b039091169183156108fc0291849190818181858888f19350505050158015610283573d6000803e3d6000fd5b5060405183815233907f52e79696d272e4220b60ff5e97c8b4d34a041f6f107e1d686bf7700cace0e5ee906020015b60405180910390a2505050565b6000818152600360209081526040808320338452909152902054819060ff16156102e857600080fd5b60008281526001602052604081206003810180549192349261030b9084906105b5565b9091555050600181810180546000906103259084906105b5565b909155505060008381526002602081815260408084208151808301835233808252348286019081528354600180820186559489528689209351970290920180546001600160a01b0319166001600160a01b0390971696909617865590519482019490945587855260038352818520848652835293819020805460ff1916909417909355915185815290917f3fabff0a9c3ecd6814702e247fa9733e5d0aa69e3a38590f92cb18f623a2254d91016102b2565b61040b604051806080016040528060006001600160a01b031681526020016000815260200160008152602001600081525090565b50600090815260016020818152604092839020835160808101855281546001600160a01b031681529281015491830191909152600281015492820192909252600390910154606082015290565b6000336001600160a01b037f0000000000000000000000000000000000000000000000000000000000000000161461048f57600080fd5b60008054908061049e836105cd565b9091555060008181526001602090815260409182902080546001600160a01b0319166001600160a01b038816178155600281018690559151838152929350909133917ffc5b9d1c2c1134048e1792e3ae27d4eee04f460d341711c7088000d2ca218621910160405180910390a25092915050565b6001600160a01b038116811461052757600080fd5b50565b6000806040838503121561053d57600080fd5b82359150602083013561054f81610512565b809150509250929050565b60006020828403121561056c57600080fd5b5035919050565b6000806040838503121561058657600080fd5b823561059181610512565b946020939093013593505050565b634e487b7160e01b600052601160045260246000fd5b600082198211156105c8576105c861059f565b500190565b6000600182016105df576105df61059f565b506001019056fea26469706673582212208a6260a8cff80d591040b2d9964a57b724129da0b89ba654513241e84ba564d564736f6c634300080e0033",
  "immutableReferences": {
    "2544": [
      {
        "length": 32,
        "start": 396
      },
      {
        "length": 32,
        "start": 1125
      }
    ]
  },
  "source": "// SPDX-License-Identifier: GPL-3.0\npragma solidity 0.8.14;\n\ncontract CrowdFundingStorage {\n    struct Campaign {\n        address payable receiver;\n        uint256 numFunders;\n        uint256 fundingGoal;\n        uint256 totalAmount;\n    }\n\n    struct Funder {\n        address addr;\n        uint256 amount;\n    }\n\n    uint256 public numCampaigns;\n    mapping(uint256 => Campaign) campaigns;\n    mapping(uint256 => Funder[]) funders;\n    mapping(uint256 => mapping(address => bool)) public participate;\n}\n\ncontract CrowdFunding is CrowdFundingStorage {\n    address public immutable owner;\n\n    event CampaignCreated(address indexed _from, uint256 _id);\n    event BidPlaced(address indexed _from, uint256 _id);\n    event WithdrawDone(address indexed _from, uint256 _id);\n    event WithdrawFailed(address indexed _from, uint256 _id);\n\n    constructor() {\n        owner = msg.sender;\n    }\n\n    modifier isOwner() {\n        require(msg.sender == owner);\n        _;\n    }\n\n    modifier validate(uint256 id) {\n        require(participate[id][msg.sender] == false);\n        _;\n    }\n\n    function getCampaign(uint256 id) external view returns(Campaign memory) {\n        return campaigns[id];\n    }\n\n    function newCampaign(address payable receiver, uint256 goal) external isOwner() returns(uint256 id) {\n        id = numCampaigns++;\n        Campaign storage c = campaigns[id];\n        c.receiver = receiver;\n        c.fundingGoal = goal;\n\n        emit CampaignCreated(msg.sender, id);\n    }\n\n    function bid(uint256 id) external payable validate(id) {\n        Campaign storage c = campaigns[id];\n        \n        c.totalAmount += msg.value;\n        c.numFunders += 1;\n\n        funders[id].push(Funder({\n            addr: msg.sender,\n            amount: msg.value\n        }));\n\n        participate[id][msg.sender] = true;\n\n        emit BidPlaced(msg.sender, id);\n    }\n\n    function withdraw(uint256 id) external {\n        Campaign storage c = campaigns[id];\n\n        if(c.totalAmount < c.fundingGoal) {\n            emit WithdrawFailed(msg.sender, id);\n            return;\n        }\n\n        uint256 amount = c.totalAmount;\n        c.totalAmount = 0;\n        c.receiver.transfer(amount);\n\n        emit WithdrawDone(msg.sender, id);\n    }\n}\n",
  "sourcePath": "/Users/alex/work/solidity_projects/solidity_course_7/contracts/CrowdFunding.sol",
  "compiler": {
    "name": "solc",
    "version": "0.8.14+commit.80d49f37.Emscripten.clang"
  },
  "schemaVersion": "3.4.7",
  "updatedAt": "2022-06-24T07:50:13.083Z",
  "networkType": "ethereum",
  "devdoc": {
    "kind": "dev",
    "methods": {},
    "version": 1
  },
  "userdoc": {
    "kind": "user",
    "methods": {},
    "version": 1
  }
}