{
  "contractName": "MintableERC721",
  "abi": [
    {
      "inputs": [
        {
          "internalType": "string",
          "name": "name_",
          "type": "string"
        },
        {
          "internalType": "string",
          "name": "symbol_",
          "type": "string"
        }
      ],
      "stateMutability": "nonpayable",
      "type": "constructor"
    },
    {
      "anonymous": false,
      "inputs": [
        {
          "indexed": true,
          "internalType": "address",
          "name": "owner",
          "type": "address"
        },
        {
          "indexed": true,
          "internalType": "address",
          "name": "approved",
          "type": "address"
        },
        {
          "indexed": true,
          "internalType": "uint256",
          "name": "tokenId",
          "type": "uint256"
        }
      ],
      "name": "Approval",
      "type": "event"
    },
    {
      "anonymous": false,
      "inputs": [
        {
          "indexed": true,
          "internalType": "address",
          "name": "owner",
          "type": "address"
        },
        {
          "indexed": true,
          "internalType": "address",
          "name": "operator",
          "type": "address"
        },
        {
          "indexed": false,
          "internalType": "bool",
          "name": "approved",
          "type": "bool"
        }
      ],
      "name": "ApprovalForAll",
      "type": "event"
    },
    {
      "anonymous": false,
      "inputs": [
        {
          "indexed": true,
          "internalType": "address",
          "name": "previousOwner",
          "type": "address"
        },
        {
          "indexed": true,
          "internalType": "address",
          "name": "newOwner",
          "type": "address"
        }
      ],
      "name": "OwnershipTransferred",
      "type": "event"
    },
    {
      "anonymous": false,
      "inputs": [
        {
          "indexed": true,
          "internalType": "address",
          "name": "from",
          "type": "address"
        },
        {
          "indexed": true,
          "internalType": "address",
          "name": "to",
          "type": "address"
        },
        {
          "indexed": true,
          "internalType": "uint256",
          "name": "tokenId",
          "type": "uint256"
        }
      ],
      "name": "Transfer",
      "type": "event"
    },
    {
      "inputs": [],
      "name": "_CUR_TOKENID_",
      "outputs": [
        {
          "internalType": "uint256",
          "name": "",
          "type": "uint256"
        }
      ],
      "stateMutability": "view",
      "type": "function",
      "constant": true
    },
    {
      "inputs": [
        {
          "internalType": "address",
          "name": "to",
          "type": "address"
        },
        {
          "internalType": "uint256",
          "name": "tokenId",
          "type": "uint256"
        }
      ],
      "name": "approve",
      "outputs": [],
      "stateMutability": "nonpayable",
      "type": "function"
    },
    {
      "inputs": [
        {
          "internalType": "address",
          "name": "owner",
          "type": "address"
        }
      ],
      "name": "balanceOf",
      "outputs": [
        {
          "internalType": "uint256",
          "name": "",
          "type": "uint256"
        }
      ],
      "stateMutability": "view",
      "type": "function",
      "constant": true
    },
    {
      "inputs": [
        {
          "internalType": "uint256",
          "name": "tokenId",
          "type": "uint256"
        }
      ],
      "name": "getApproved",
      "outputs": [
        {
          "internalType": "address",
          "name": "",
          "type": "address"
        }
      ],
      "stateMutability": "view",
      "type": "function",
      "constant": true
    },
    {
      "inputs": [
        {
          "internalType": "address",
          "name": "owner",
          "type": "address"
        },
        {
          "internalType": "address",
          "name": "operator",
          "type": "address"
        }
      ],
      "name": "isApprovedForAll",
      "outputs": [
        {
          "internalType": "bool",
          "name": "",
          "type": "bool"
        }
      ],
      "stateMutability": "view",
      "type": "function",
      "constant": true
    },
    {
      "inputs": [],
      "name": "name",
      "outputs": [
        {
          "internalType": "string",
          "name": "",
          "type": "string"
        }
      ],
      "stateMutability": "view",
      "type": "function",
      "constant": true
    },
    {
      "inputs": [],
      "name": "owner",
      "outputs": [
        {
          "internalType": "address",
          "name": "",
          "type": "address"
        }
      ],
      "stateMutability": "view",
      "type": "function",
      "constant": true
    },
    {
      "inputs": [
        {
          "internalType": "uint256",
          "name": "tokenId",
          "type": "uint256"
        }
      ],
      "name": "ownerOf",
      "outputs": [
        {
          "internalType": "address",
          "name": "",
          "type": "address"
        }
      ],
      "stateMutability": "view",
      "type": "function",
      "constant": true
    },
    {
      "inputs": [],
      "name": "renounceOwnership",
      "outputs": [],
      "stateMutability": "nonpayable",
      "type": "function"
    },
    {
      "inputs": [
        {
          "internalType": "address",
          "name": "from",
          "type": "address"
        },
        {
          "internalType": "address",
          "name": "to",
          "type": "address"
        },
        {
          "internalType": "uint256",
          "name": "tokenId",
          "type": "uint256"
        }
      ],
      "name": "safeTransferFrom",
      "outputs": [],
      "stateMutability": "nonpayable",
      "type": "function"
    },
    {
      "inputs": [
        {
          "internalType": "address",
          "name": "from",
          "type": "address"
        },
        {
          "internalType": "address",
          "name": "to",
          "type": "address"
        },
        {
          "internalType": "uint256",
          "name": "tokenId",
          "type": "uint256"
        },
        {
          "internalType": "bytes",
          "name": "_data",
          "type": "bytes"
        }
      ],
      "name": "safeTransferFrom",
      "outputs": [],
      "stateMutability": "nonpayable",
      "type": "function"
    },
    {
      "inputs": [
        {
          "internalType": "address",
          "name": "operator",
          "type": "address"
        },
        {
          "internalType": "bool",
          "name": "approved",
          "type": "bool"
        }
      ],
      "name": "setApprovalForAll",
      "outputs": [],
      "stateMutability": "nonpayable",
      "type": "function"
    },
    {
      "inputs": [
        {
          "internalType": "bytes4",
          "name": "interfaceId",
          "type": "bytes4"
        }
      ],
      "name": "supportsInterface",
      "outputs": [
        {
          "internalType": "bool",
          "name": "",
          "type": "bool"
        }
      ],
      "stateMutability": "view",
      "type": "function",
      "constant": true
    },
    {
      "inputs": [],
      "name": "symbol",
      "outputs": [
        {
          "internalType": "string",
          "name": "",
          "type": "string"
        }
      ],
      "stateMutability": "view",
      "type": "function",
      "constant": true
    },
    {
      "inputs": [
        {
          "internalType": "uint256",
          "name": "tokenId",
          "type": "uint256"
        }
      ],
      "name": "tokenURI",
      "outputs": [
        {
          "internalType": "string",
          "name": "",
          "type": "string"
        }
      ],
      "stateMutability": "view",
      "type": "function",
      "constant": true
    },
    {
      "inputs": [
        {
          "internalType": "address",
          "name": "from",
          "type": "address"
        },
        {
          "internalType": "address",
          "name": "to",
          "type": "address"
        },
        {
          "internalType": "uint256",
          "name": "tokenId",
          "type": "uint256"
        }
      ],
      "name": "transferFrom",
      "outputs": [],
      "stateMutability": "nonpayable",
      "type": "function"
    },
    {
      "inputs": [
        {
          "internalType": "address",
          "name": "newOwner",
          "type": "address"
        }
      ],
      "name": "transferOwnership",
      "outputs": [],
      "stateMutability": "nonpayable",
      "type": "function"
    },
    {
      "inputs": [
        {
          "internalType": "address[]",
          "name": "receivers",
          "type": "address[]"
        },
        {
          "internalType": "string[]",
          "name": "uris",
          "type": "string[]"
        }
      ],
      "name": "mint",
      "outputs": [],
      "stateMutability": "nonpayable",
      "type": "function"
    }
  ],
  "bytecode": "0x60806040523480156200001157600080fd5b5060405162001d6138038062001d61833981016040819052620000349162000251565b8151829082906200004d906000906020850190620000de565b50805162000063906001906020840190620000de565b505050620000806200007a6200008860201b60201c565b6200008c565b5050620002f7565b3390565b600780546001600160a01b038381166001600160a01b0319831681179093556040519116919082907f8be0079c531659141344cd1fd0a4f28419497f9722a3daafe3b4186f6b6457e090600090a35050565b828054620000ec90620002bb565b90600052602060002090601f0160209004810192826200011057600085556200015b565b82601f106200012b57805160ff19168380011785556200015b565b828001600101855582156200015b579182015b828111156200015b5782518255916020019190600101906200013e565b50620001699291506200016d565b5090565b5b808211156200016957600081556001016200016e565b634e487b7160e01b600052604160045260246000fd5b600082601f830112620001ac57600080fd5b81516001600160401b0380821115620001c957620001c962000184565b604051601f8301601f19908116603f01168101908282118183101715620001f457620001f462000184565b816040528381526020925086838588010111156200021157600080fd5b600091505b8382101562000235578582018301518183018401529082019062000216565b83821115620002475760008385830101525b9695505050505050565b600080604083850312156200026557600080fd5b82516001600160401b03808211156200027d57600080fd5b6200028b868387016200019a565b93506020850151915080821115620002a257600080fd5b50620002b1858286016200019a565b9150509250929050565b600181811c90821680620002d057607f821691505b602082108103620002f157634e487b7160e01b600052602260045260246000fd5b50919050565b611a5a80620003076000396000f3fe608060405234801561001057600080fd5b50600436106101165760003560e01c8063715018a6116100a2578063a22cb46511610071578063a22cb4651461022f578063b88d4fde14610242578063c87b56dd14610255578063e985e9c514610268578063f2fde38b146102a457600080fd5b8063715018a6146102055780638698dbd61461020d5780638da5cb5b1461021657806395d89b411461022757600080fd5b806323b872dd116100e957806323b872dd1461019857806342842e0e146101ab5780634c7bc5cf146101be5780636352211e146101d157806370a08231146101e457600080fd5b806301ffc9a71461011b57806306fdde0314610143578063081812fc14610158578063095ea7b314610183575b600080fd5b61012e610129366004611439565b6102b7565b60405190151581526020015b60405180910390f35b61014b610309565b60405161013a91906114ae565b61016b6101663660046114c1565b61039b565b6040516001600160a01b03909116815260200161013a565b6101966101913660046114f6565b610428565b005b6101966101a6366004611520565b61053d565b6101966101b9366004611520565b61056e565b6101966101cc3660046115a8565b610589565b61016b6101df3660046114c1565b6106a7565b6101f76101f2366004611614565b61071e565b60405190815260200161013a565b6101966107a5565b6101f760085481565b6007546001600160a01b031661016b565b61014b6107db565b61019661023d36600461162f565b6107ea565b610196610250366004611681565b6107f9565b61014b6102633660046114c1565b610831565b61012e61027636600461175d565b6001600160a01b03918216600090815260056020908152604080832093909416825291909152205460ff1690565b6101966102b2366004611614565b6109a7565b60006001600160e01b031982166380ac58cd60e01b14806102e857506001600160e01b03198216635b5e139f60e01b145b8061030357506301ffc9a760e01b6001600160e01b03198316145b92915050565b60606000805461031890611790565b80601f016020809104026020016040519081016040528092919081815260200182805461034490611790565b80156103915780601f1061036657610100808354040283529160200191610391565b820191906000526020600020905b81548152906001019060200180831161037457829003601f168201915b5050505050905090565b60006103a682610a42565b61040c5760405162461bcd60e51b815260206004820152602c60248201527f4552433732313a20617070726f76656420717565727920666f72206e6f6e657860448201526b34b9ba32b73a103a37b5b2b760a11b60648201526084015b60405180910390fd5b506000908152600460205260409020546001600160a01b031690565b6000610433826106a7565b9050806001600160a01b0316836001600160a01b0316036104a05760405162461bcd60e51b815260206004820152602160248201527f4552433732313a20617070726f76616c20746f2063757272656e74206f776e656044820152603960f91b6064820152608401610403565b336001600160a01b03821614806104bc57506104bc8133610276565b61052e5760405162461bcd60e51b815260206004820152603860248201527f4552433732313a20617070726f76652063616c6c6572206973206e6f74206f7760448201527f6e6572206e6f7220617070726f76656420666f7220616c6c00000000000000006064820152608401610403565b6105388383610a5f565b505050565b6105473382610acd565b6105635760405162461bcd60e51b8152600401610403906117ca565b610538838383610bb6565b610538838383604051806020016040528060008152506107f9565b6007546001600160a01b031633146105b35760405162461bcd60e51b81526004016104039061181b565b8281146105dc5760405162461bcd60e51b81526020600482015260006024820152604401610403565b60005b838110156106a0576106198585838181106105fc576105fc611850565b90506020020160208101906106119190611614565b600854610d52565b61067d60085484848481811061063157610631611850565b90506020028101906106439190611866565b8080601f016020809104026020016040519081016040528093929190818152602001838380828437600092019190915250610d6c92505050565b60085461068b9060016118c3565b60085580610698816118db565b9150506105df565b5050505050565b6000818152600260205260408120546001600160a01b0316806103035760405162461bcd60e51b815260206004820152602960248201527f4552433732313a206f776e657220717565727920666f72206e6f6e657869737460448201526832b73a103a37b5b2b760b91b6064820152608401610403565b60006001600160a01b0382166107895760405162461bcd60e51b815260206004820152602a60248201527f4552433732313a2062616c616e636520717565727920666f7220746865207a65604482015269726f206164647265737360b01b6064820152608401610403565b506001600160a01b031660009081526003602052604090205490565b6007546001600160a01b031633146107cf5760405162461bcd60e51b81526004016104039061181b565b6107d96000610df7565b565b60606001805461031890611790565b6107f5338383610e49565b5050565b6108033383610acd565b61081f5760405162461bcd60e51b8152600401610403906117ca565b61082b84848484610f17565b50505050565b606061083c82610a42565b6108a25760405162461bcd60e51b815260206004820152603160248201527f45524337323155524953746f726167653a2055524920717565727920666f72206044820152703737b732bc34b9ba32b73a103a37b5b2b760791b6064820152608401610403565b600082815260066020526040812080546108bb90611790565b80601f01602080910402602001604051908101604052809291908181526020018280546108e790611790565b80156109345780601f1061090957610100808354040283529160200191610934565b820191906000526020600020905b81548152906001019060200180831161091757829003601f168201915b50505050509050600061095260408051602081019091526000815290565b90508051600003610964575092915050565b81511561099657808260405160200161097e9291906118f4565b60405160208183030381529060405292505050919050565b61099f84610f4a565b949350505050565b6007546001600160a01b031633146109d15760405162461bcd60e51b81526004016104039061181b565b6001600160a01b038116610a365760405162461bcd60e51b815260206004820152602660248201527f4f776e61626c653a206e6577206f776e657220697320746865207a65726f206160448201526564647265737360d01b6064820152608401610403565b610a3f81610df7565b50565b6000908152600260205260409020546001600160a01b0316151590565b600081815260046020526040902080546001600160a01b0319166001600160a01b0384169081179091558190610a94826106a7565b6001600160a01b03167f8c5be1e5ebec7d5bd14f71427d1e84f3dd0314c0f7b2291e5b200ac8c7c3b92560405160405180910390a45050565b6000610ad882610a42565b610b395760405162461bcd60e51b815260206004820152602c60248201527f4552433732313a206f70657261746f7220717565727920666f72206e6f6e657860448201526b34b9ba32b73a103a37b5b2b760a11b6064820152608401610403565b6000610b44836106a7565b9050806001600160a01b0316846001600160a01b03161480610b8b57506001600160a01b0380821660009081526005602090815260408083209388168352929052205460ff165b8061099f5750836001600160a01b0316610ba48461039b565b6001600160a01b031614949350505050565b826001600160a01b0316610bc9826106a7565b6001600160a01b031614610c2d5760405162461bcd60e51b815260206004820152602560248201527f4552433732313a207472616e736665722066726f6d20696e636f72726563742060448201526437bbb732b960d91b6064820152608401610403565b6001600160a01b038216610c8f5760405162461bcd60e51b8152602060048201526024808201527f4552433732313a207472616e7366657220746f20746865207a65726f206164646044820152637265737360e01b6064820152608401610403565b610c9a600082610a5f565b6001600160a01b0383166000908152600360205260408120805460019290610cc3908490611923565b90915550506001600160a01b0382166000908152600360205260408120805460019290610cf19084906118c3565b909155505060008181526002602052604080822080546001600160a01b0319166001600160a01b0386811691821790925591518493918716917fddf252ad1be2c89b69c2b068fc378daa952ba7f163c4a11628f55a4df523b3ef91a4505050565b6107f5828260405180602001604052806000815250611022565b610d7582610a42565b610dd85760405162461bcd60e51b815260206004820152602e60248201527f45524337323155524953746f726167653a2055524920736574206f66206e6f6e60448201526d32bc34b9ba32b73a103a37b5b2b760911b6064820152608401610403565b600082815260066020908152604090912082516105389284019061138a565b600780546001600160a01b038381166001600160a01b0319831681179093556040519116919082907f8be0079c531659141344cd1fd0a4f28419497f9722a3daafe3b4186f6b6457e090600090a35050565b816001600160a01b0316836001600160a01b031603610eaa5760405162461bcd60e51b815260206004820152601960248201527f4552433732313a20617070726f766520746f2063616c6c6572000000000000006044820152606401610403565b6001600160a01b03838116600081815260056020908152604080832094871680845294825291829020805460ff191686151590811790915591519182527f17307eab39ab6107e8899845ad3d59bd9653f200f220920489ca2b5937696c31910160405180910390a3505050565b610f22848484610bb6565b610f2e84848484611055565b61082b5760405162461bcd60e51b81526004016104039061193a565b6060610f5582610a42565b610fb95760405162461bcd60e51b815260206004820152602f60248201527f4552433732314d657461646174613a2055524920717565727920666f72206e6f60448201526e3732bc34b9ba32b73a103a37b5b2b760891b6064820152608401610403565b6000610fd060408051602081019091526000815290565b90506000815111610ff0576040518060200160405280600081525061101b565b80610ffa84611156565b60405160200161100b9291906118f4565b6040516020818303038152906040525b9392505050565b61102c8383611257565b6110396000848484611055565b6105385760405162461bcd60e51b81526004016104039061193a565b60006001600160a01b0384163b1561114b57604051630a85bd0160e11b81526001600160a01b0385169063150b7a029061109990339089908890889060040161198c565b6020604051808303816000875af19250505080156110d4575060408051601f3d908101601f191682019092526110d1918101906119c9565b60015b611131573d808015611102576040519150601f19603f3d011682016040523d82523d6000602084013e611107565b606091505b5080516000036111295760405162461bcd60e51b81526004016104039061193a565b805181602001fd5b6001600160e01b031916630a85bd0160e11b14905061099f565b506001949350505050565b60608160000361117d5750506040805180820190915260018152600360fc1b602082015290565b8160005b81156111a75780611191816118db565b91506111a09050600a836119fc565b9150611181565b60008167ffffffffffffffff8111156111c2576111c261166b565b6040519080825280601f01601f1916602001820160405280156111ec576020820181803683370190505b5090505b841561099f57611201600183611923565b915061120e600a86611a10565b6112199060306118c3565b60f81b81838151811061122e5761122e611850565b60200101906001600160f81b031916908160001a905350611250600a866119fc565b94506111f0565b6001600160a01b0382166112ad5760405162461bcd60e51b815260206004820181905260248201527f4552433732313a206d696e7420746f20746865207a65726f20616464726573736044820152606401610403565b6112b681610a42565b156113035760405162461bcd60e51b815260206004820152601c60248201527f4552433732313a20746f6b656e20616c7265616479206d696e746564000000006044820152606401610403565b6001600160a01b038216600090815260036020526040812080546001929061132c9084906118c3565b909155505060008181526002602052604080822080546001600160a01b0319166001600160a01b03861690811790915590518392907fddf252ad1be2c89b69c2b068fc378daa952ba7f163c4a11628f55a4df523b3ef908290a45050565b82805461139690611790565b90600052602060002090601f0160209004810192826113b857600085556113fe565b82601f106113d157805160ff19168380011785556113fe565b828001600101855582156113fe579182015b828111156113fe5782518255916020019190600101906113e3565b5061140a92915061140e565b5090565b5b8082111561140a576000815560010161140f565b6001600160e01b031981168114610a3f57600080fd5b60006020828403121561144b57600080fd5b813561101b81611423565b60005b83811015611471578181015183820152602001611459565b8381111561082b5750506000910152565b6000815180845261149a816020860160208601611456565b601f01601f19169290920160200192915050565b60208152600061101b6020830184611482565b6000602082840312156114d357600080fd5b5035919050565b80356001600160a01b03811681146114f157600080fd5b919050565b6000806040838503121561150957600080fd5b611512836114da565b946020939093013593505050565b60008060006060848603121561153557600080fd5b61153e846114da565b925061154c602085016114da565b9150604084013590509250925092565b60008083601f84011261156e57600080fd5b50813567ffffffffffffffff81111561158657600080fd5b6020830191508360208260051b85010111156115a157600080fd5b9250929050565b600080600080604085870312156115be57600080fd5b843567ffffffffffffffff808211156115d657600080fd5b6115e28883890161155c565b909650945060208701359150808211156115fb57600080fd5b506116088782880161155c565b95989497509550505050565b60006020828403121561162657600080fd5b61101b826114da565b6000806040838503121561164257600080fd5b61164b836114da565b91506020830135801515811461166057600080fd5b809150509250929050565b634e487b7160e01b600052604160045260246000fd5b6000806000806080858703121561169757600080fd5b6116a0856114da565b93506116ae602086016114da565b925060408501359150606085013567ffffffffffffffff808211156116d257600080fd5b818701915087601f8301126116e657600080fd5b8135818111156116f8576116f861166b565b604051601f8201601f19908116603f011681019083821181831017156117205761172061166b565b816040528281528a602084870101111561173957600080fd5b82602086016020830137600060208483010152809550505050505092959194509250565b6000806040838503121561177057600080fd5b611779836114da565b9150611787602084016114da565b90509250929050565b600181811c908216806117a457607f821691505b6020821081036117c457634e487b7160e01b600052602260045260246000fd5b50919050565b60208082526031908201527f4552433732313a207472616e736665722063616c6c6572206973206e6f74206f6040820152701ddb995c881b9bdc88185c1c1c9bdd9959607a1b606082015260800190565b6020808252818101527f4f776e61626c653a2063616c6c6572206973206e6f7420746865206f776e6572604082015260600190565b634e487b7160e01b600052603260045260246000fd5b6000808335601e1984360301811261187d57600080fd5b83018035915067ffffffffffffffff82111561189857600080fd5b6020019150368190038213156115a157600080fd5b634e487b7160e01b600052601160045260246000fd5b600082198211156118d6576118d66118ad565b500190565b6000600182016118ed576118ed6118ad565b5060010190565b60008351611906818460208801611456565b83519083019061191a818360208801611456565b01949350505050565b600082821015611935576119356118ad565b500390565b60208082526032908201527f4552433732313a207472616e7366657220746f206e6f6e20455243373231526560408201527131b2b4bb32b91034b6b83632b6b2b73a32b960711b606082015260800190565b6001600160a01b03858116825284166020820152604081018390526080606082018190526000906119bf90830184611482565b9695505050505050565b6000602082840312156119db57600080fd5b815161101b81611423565b634e487b7160e01b600052601260045260246000fd5b600082611a0b57611a0b6119e6565b500490565b600082611a1f57611a1f6119e6565b50069056fea264697066735822122090957435de231a4d300e77a68a5fe7f39b9a17b013909ea07b10fa6aa537d9e564736f6c634300080e0033",
  "immutableReferences": {},
  "source": "// SPDX-License-Identifier: GPL-3.0\nimport \"@openzeppelin/contracts/token/ERC721/extensions/ERC721URIStorage.sol\";\nimport \"@openzeppelin/contracts/token/ERC721/ERC721.sol\";\nimport \"@openzeppelin/contracts/access/Ownable.sol\";\n\npragma solidity 0.8.14;\n\ncontract MintableERC721 is ERC721URIStorage, Ownable {\n    // owner mint NFT, set receiver's address, tokenId and uri\n\n    uint256 public _CUR_TOKENID_;\n\n    /**\n     * @dev Initializes the contract by setting a `name` and a `symbol` to the token collection.\n     */\n    constructor(string memory name_, string memory symbol_) ERC721(name_, symbol_) {}\n\n    function mint(\n        address[] calldata receivers,\n        string[] calldata uris\n    ) external onlyOwner {\n        require(receivers.length == uris.length, \"\");\n        for(uint256 i = 0; i < receivers.length; i++) {\n            _safeMint(receivers[i], _CUR_TOKENID_);\n            _setTokenURI(_CUR_TOKENID_, uris[i]);\n            _CUR_TOKENID_ = _CUR_TOKENID_ + 1;\n        }\n    }\n}",
  "sourcePath": "/Users/alex/work/solidity_projects/solidity_course_7/contracts/MintableERC721.sol",
  "compiler": {
    "name": "solc",
    "version": "0.8.14+commit.80d49f37.Emscripten.clang"
  },
  "schemaVersion": "3.4.7",
  "updatedAt": "2022-06-24T07:51:12.520Z",
  "networkType": "ethereum",
  "devdoc": {
    "kind": "dev",
    "methods": {
      "approve(address,uint256)": {
        "details": "See {IERC721-approve}."
      },
      "balanceOf(address)": {
        "details": "See {IERC721-balanceOf}."
      },
      "constructor": {
        "details": "Initializes the contract by setting a `name` and a `symbol` to the token collection."
      },
      "getApproved(uint256)": {
        "details": "See {IERC721-getApproved}."
      },
      "isApprovedForAll(address,address)": {
        "details": "See {IERC721-isApprovedForAll}."
      },
      "name()": {
        "details": "See {IERC721Metadata-name}."
      },
      "owner()": {
        "details": "Returns the address of the current owner."
      },
      "ownerOf(uint256)": {
        "details": "See {IERC721-ownerOf}."
      },
      "renounceOwnership()": {
        "details": "Leaves the contract without owner. It will not be possible to call `onlyOwner` functions anymore. Can only be called by the current owner. NOTE: Renouncing ownership will leave the contract without an owner, thereby removing any functionality that is only available to the owner."
      },
      "safeTransferFrom(address,address,uint256)": {
        "details": "See {IERC721-safeTransferFrom}."
      },
      "safeTransferFrom(address,address,uint256,bytes)": {
        "details": "See {IERC721-safeTransferFrom}."
      },
      "setApprovalForAll(address,bool)": {
        "details": "See {IERC721-setApprovalForAll}."
      },
      "supportsInterface(bytes4)": {
        "details": "See {IERC165-supportsInterface}."
      },
      "symbol()": {
        "details": "See {IERC721Metadata-symbol}."
      },
      "tokenURI(uint256)": {
        "details": "See {IERC721Metadata-tokenURI}."
      },
      "transferFrom(address,address,uint256)": {
        "details": "See {IERC721-transferFrom}."
      },
      "transferOwnership(address)": {
        "details": "Transfers ownership of the contract to a new account (`newOwner`). Can only be called by the current owner."
      }
    },
    "version": 1
  },
  "userdoc": {
    "kind": "user",
    "methods": {},
    "version": 1
  }
}